{
  "contractName": "CatCoin",
  "abi": [
    {
      "inputs": [
        {
          "internalType": "uint256",
          "name": "_initialSupply",
          "type": "uint256"
        }
      ],
      "stateMutability": "nonpayable",
      "type": "constructor"
    },
    {
      "anonymous": false,
      "inputs": [
        {
          "indexed": true,
          "internalType": "address",
          "name": "_owner",
          "type": "address"
        },
        {
          "indexed": true,
          "internalType": "address",
          "name": "_spender",
          "type": "address"
        },
        {
          "indexed": false,
          "internalType": "uint256",
          "name": "_value",
          "type": "uint256"
        }
      ],
      "name": "Approval",
      "type": "event"
    },
    {
      "anonymous": false,
      "inputs": [
        {
          "indexed": true,
          "internalType": "address",
          "name": "_burner",
          "type": "address"
        },
        {
          "indexed": false,
          "internalType": "uint256",
          "name": "_value",
          "type": "uint256"
        }
      ],
      "name": "BurnCats",
      "type": "event"
    },
    {
      "anonymous": false,
      "inputs": [
        {
          "indexed": true,
          "internalType": "address",
          "name": "_to",
          "type": "address"
        },
        {
          "indexed": false,
          "internalType": "uint256",
          "name": "_amount",
          "type": "uint256"
        }
      ],
      "name": "MintCats",
      "type": "event"
    },
    {
      "anonymous": false,
      "inputs": [
        {
          "indexed": true,
          "internalType": "address",
          "name": "previousOwner",
          "type": "address"
        },
        {
          "indexed": true,
          "internalType": "address",
          "name": "newOwner",
          "type": "address"
        }
      ],
      "name": "OwnershipTransferred",
      "type": "event"
    },
    {
      "anonymous": false,
      "inputs": [
        {
          "indexed": true,
          "internalType": "address",
          "name": "_from",
          "type": "address"
        },
        {
          "indexed": true,
          "internalType": "address",
          "name": "_to",
          "type": "address"
        },
        {
          "indexed": false,
          "internalType": "uint256",
          "name": "_value",
          "type": "uint256"
        }
      ],
      "name": "Transfer",
      "type": "event"
    },
    {
      "inputs": [
        {
          "internalType": "address",
          "name": "",
          "type": "address"
        },
        {
          "internalType": "address",
          "name": "",
          "type": "address"
        }
      ],
      "name": "allowance",
      "outputs": [
        {
          "internalType": "uint256",
          "name": "",
          "type": "uint256"
        }
      ],
      "stateMutability": "view",
      "type": "function"
    },
    {
      "inputs": [
        {
          "internalType": "address",
          "name": "",
          "type": "address"
        }
      ],
      "name": "balanceOf",
      "outputs": [
        {
          "internalType": "uint256",
          "name": "",
          "type": "uint256"
        }
      ],
      "stateMutability": "view",
      "type": "function"
    },
    {
      "inputs": [],
      "name": "decimals",
      "outputs": [
        {
          "internalType": "uint8",
          "name": "",
          "type": "uint8"
        }
      ],
      "stateMutability": "view",
      "type": "function"
    },
    {
      "inputs": [],
      "name": "name",
      "outputs": [
        {
          "internalType": "string",
          "name": "",
          "type": "string"
        }
      ],
      "stateMutability": "view",
      "type": "function"
    },
    {
      "inputs": [],
      "name": "owner",
      "outputs": [
        {
          "internalType": "address",
          "name": "",
          "type": "address"
        }
      ],
      "stateMutability": "view",
      "type": "function"
    },
    {
      "inputs": [],
      "name": "symbol",
      "outputs": [
        {
          "internalType": "string",
          "name": "",
          "type": "string"
        }
      ],
      "stateMutability": "view",
      "type": "function"
    },
    {
      "inputs": [],
      "name": "totalSupply",
      "outputs": [
        {
          "internalType": "uint256",
          "name": "",
          "type": "uint256"
        }
      ],
      "stateMutability": "view",
      "type": "function"
    },
    {
      "inputs": [
        {
          "internalType": "address",
          "name": "newOwner",
          "type": "address"
        }
      ],
      "name": "transferOwnership",
      "outputs": [],
      "stateMutability": "nonpayable",
      "type": "function"
    },
    {
      "inputs": [
        {
          "internalType": "address",
          "name": "_to",
          "type": "address"
        },
        {
          "internalType": "uint256",
          "name": "_value",
          "type": "uint256"
        }
      ],
      "name": "transfer",
      "outputs": [
        {
          "internalType": "bool",
          "name": "success",
          "type": "bool"
        }
      ],
      "stateMutability": "payable",
      "type": "function"
    },
    {
      "inputs": [
        {
          "internalType": "uint8",
          "name": "_a",
          "type": "uint8"
        },
        {
          "internalType": "uint8",
          "name": "_b",
          "type": "uint8"
        }
      ],
      "name": "addition",
      "outputs": [
        {
          "internalType": "uint8",
          "name": "",
          "type": "uint8"
        }
      ],
      "stateMutability": "pure",
      "type": "function"
    },
    {
      "inputs": [
        {
          "internalType": "address",
          "name": "_spender",
          "type": "address"
        },
        {
          "internalType": "uint256",
          "name": "_value",
          "type": "uint256"
        }
      ],
      "name": "approve",
      "outputs": [
        {
          "internalType": "bool",
          "name": "",
          "type": "bool"
        }
      ],
      "stateMutability": "nonpayable",
      "type": "function"
    },
    {
      "inputs": [
        {
          "internalType": "address",
          "name": "_from",
          "type": "address"
        },
        {
          "internalType": "address",
          "name": "_to",
          "type": "address"
        },
        {
          "internalType": "uint256",
          "name": "_value",
          "type": "uint256"
        }
      ],
      "name": "transferFrom",
      "outputs": [
        {
          "internalType": "bool",
          "name": "",
          "type": "bool"
        }
      ],
      "stateMutability": "payable",
      "type": "function"
    },
    {
      "inputs": [
        {
          "internalType": "address",
          "name": "_owner",
          "type": "address"
        },
        {
          "internalType": "uint256",
          "name": "_amount",
          "type": "uint256"
        }
      ],
      "name": "mintCats",
      "outputs": [
        {
          "internalType": "bool",
          "name": "",
          "type": "bool"
        }
      ],
      "stateMutability": "nonpayable",
      "type": "function"
    },
    {
      "inputs": [
        {
          "internalType": "uint256",
          "name": "_amount",
          "type": "uint256"
        }
      ],
      "name": "burnCats",
      "outputs": [
        {
          "internalType": "bool",
          "name": "success",
          "type": "bool"
        }
      ],
      "stateMutability": "nonpayable",
      "type": "function"
    }
  ],
  "bytecode": "0x60806040526040518060400160405280600881526020017f43617420436f696e000000000000000000000000000000000000000000000000815250600190805190602001906200005192919062000192565b506040518060400160405280600381526020017f4341540000000000000000000000000000000000000000000000000000000000815250600290805190602001906200009f92919062000192565b506012600360006101000a81548160ff021916908360ff160217905550348015620000c957600080fd5b506040516200142d3803806200142d83398181016040526020811015620000ef57600080fd5b8101908080519060200190929190505050336000806101000a81548173ffffffffffffffffffffffffffffffffffffffff021916908373ffffffffffffffffffffffffffffffffffffffff16021790555080600560003373ffffffffffffffffffffffffffffffffffffffff1673ffffffffffffffffffffffffffffffffffffffff16815260200190815260200160002081905550806004819055505062000238565b828054600181600116156101000203166002900490600052602060002090601f016020900481019282601f10620001d557805160ff191683800117855562000206565b8280016001018555821562000206579182015b8281111562000205578251825591602001919060010190620001e8565b5b50905062000215919062000219565b5090565b5b80821115620002345760008160009055506001016200021a565b5090565b6111e580620002486000396000f3fe6080604052600436106100dd5760003560e01c806370a082311161007f578063a9059cbb11610059578063a9059cbb146104b8578063ceccde871461051c578063dd62ed3e1461057e578063f2fde38b14610603576100dd565b806370a08231146103825780638da5cb5b146103e757806395d89b4114610428576100dd565b806314728f7d116100bb57806314728f7d1461023457806318160ddd146102a557806323b872dd146102d0578063313ce56714610354576100dd565b806306fdde03146100e2578063095ea7b3146101725780630ad8f8d7146101e3575b600080fd5b3480156100ee57600080fd5b506100f7610654565b6040518080602001828103825283818151815260200191508051906020019080838360005b8381101561013757808201518184015260208101905061011c565b50505050905090810190601f1680156101645780820380516001836020036101000a031916815260200191505b509250505060405180910390f35b34801561017e57600080fd5b506101cb6004803603604081101561019557600080fd5b81019080803573ffffffffffffffffffffffffffffffffffffffff169060200190929190803590602001909291905050506106f2565b60405180821515815260200191505060405180910390f35b3480156101ef57600080fd5b5061021c6004803603602081101561020657600080fd5b81019080803590602001909291905050506107e4565b60405180821515815260200191505060405180910390f35b34801561024057600080fd5b5061028d6004803603604081101561025757600080fd5b81019080803573ffffffffffffffffffffffffffffffffffffffff169060200190929190803590602001909291905050506108e6565b60405180821515815260200191505060405180910390f35b3480156102b157600080fd5b506102ba610aee565b6040518082815260200191505060405180910390f35b61033c600480360360608110156102e657600080fd5b81019080803573ffffffffffffffffffffffffffffffffffffffff169060200190929190803573ffffffffffffffffffffffffffffffffffffffff16906020019092919080359060200190929190505050610af4565b60405180821515815260200191505060405180910390f35b34801561036057600080fd5b50610369610d5e565b604051808260ff16815260200191505060405180910390f35b34801561038e57600080fd5b506103d1600480360360208110156103a557600080fd5b81019080803573ffffffffffffffffffffffffffffffffffffffff169060200190929190505050610d71565b6040518082815260200191505060405180910390f35b3480156103f357600080fd5b506103fc610d89565b604051808273ffffffffffffffffffffffffffffffffffffffff16815260200191505060405180910390f35b34801561043457600080fd5b5061043d610dad565b6040518080602001828103825283818151815260200191508051906020019080838360005b8381101561047d578082015181840152602081019050610462565b50505050905090810190601f1680156104aa5780820380516001836020036101000a031916815260200191505b509250505060405180910390f35b610504600480360360408110156104ce57600080fd5b81019080803573ffffffffffffffffffffffffffffffffffffffff16906020019092919080359060200190929190505050610e4b565b60405180821515815260200191505060405180910390f35b34801561052857600080fd5b506105656004803603604081101561053f57600080fd5b81019080803560ff169060200190929190803560ff16906020019092919050505061102e565b604051808260ff16815260200191505060405180910390f35b34801561058a57600080fd5b506105ed600480360360408110156105a157600080fd5b81019080803573ffffffffffffffffffffffffffffffffffffffff169060200190929190803573ffffffffffffffffffffffffffffffffffffffff16906020019092919050505061103b565b6040518082815260200191505060405180910390f35b34801561060f57600080fd5b506106526004803603602081101561062657600080fd5b81019080803573ffffffffffffffffffffffffffffffffffffffff169060200190929190505050611060565b005b60018054600181600116156101000203166002900480601f0160208091040260200160405190810160405280929190818152602001828054600181600116156101000203166002900480156106ea5780601f106106bf576101008083540402835291602001916106ea565b820191906000526020600020905b8154815290600101906020018083116106cd57829003601f168201915b505050505081565b600081600660003373ffffffffffffffffffffffffffffffffffffffff1673ffffffffffffffffffffffffffffffffffffffff16815260200190815260200160002060008573ffffffffffffffffffffffffffffffffffffffff1673ffffffffffffffffffffffffffffffffffffffff168152602001908152602001600020819055508273ffffffffffffffffffffffffffffffffffffffff163373ffffffffffffffffffffffffffffffffffffffff167f8c5be1e5ebec7d5bd14f71427d1e84f3dd0314c0f7b2291e5b200ac8c7c3b925846040518082815260200191505060405180910390a36001905092915050565b6000600560003373ffffffffffffffffffffffffffffffffffffffff1673ffffffffffffffffffffffffffffffffffffffff1681526020019081526020016000205482111561083257600080fd5b81600560003373ffffffffffffffffffffffffffffffffffffffff1673ffffffffffffffffffffffffffffffffffffffff16815260200190815260200160002060008282540392505081905550816004600082825403925050819055503373ffffffffffffffffffffffffffffffffffffffff167fa109c772c782ebeb01f4178ae6c2bda0fecc84f6f4233135af173a5959ab3d51836040518082815260200191505060405180910390a260019050919050565b60008060009054906101000a900473ffffffffffffffffffffffffffffffffffffffff1673ffffffffffffffffffffffffffffffffffffffff163373ffffffffffffffffffffffffffffffffffffffff161461094157600080fd5b60045482600560008060009054906101000a900473ffffffffffffffffffffffffffffffffffffffff1673ffffffffffffffffffffffffffffffffffffffff1673ffffffffffffffffffffffffffffffffffffffff168152602001908152602001600020540111156109b257600080fd5b81600560008060009054906101000a900473ffffffffffffffffffffffffffffffffffffffff1673ffffffffffffffffffffffffffffffffffffffff1673ffffffffffffffffffffffffffffffffffffffff16815260200190815260200160002060008282540192505081905550816004600082825401925050819055508273ffffffffffffffffffffffffffffffffffffffff167fddec311bf1297737a60df0d0b2ca877a2a73bb428aee500523ccd7b798dccb53836040518082815260200191505060405180910390a28273ffffffffffffffffffffffffffffffffffffffff16600073ffffffffffffffffffffffffffffffffffffffff167fddf252ad1be2c89b69c2b068fc378daa952ba7f163c4a11628f55a4df523b3ef846040518082815260200191505060405180910390a36001905092915050565b60045481565b6000600560008573ffffffffffffffffffffffffffffffffffffffff1673ffffffffffffffffffffffffffffffffffffffff168152602001908152602001600020548211158015610bc15750600660008573ffffffffffffffffffffffffffffffffffffffff1673ffffffffffffffffffffffffffffffffffffffff16815260200190815260200160002060003373ffffffffffffffffffffffffffffffffffffffff1673ffffffffffffffffffffffffffffffffffffffff168152602001908152602001600020548211155b610bca57600080fd5b81600560008673ffffffffffffffffffffffffffffffffffffffff1673ffffffffffffffffffffffffffffffffffffffff1681526020019081526020016000206000828254039250508190555081600560008573ffffffffffffffffffffffffffffffffffffffff1673ffffffffffffffffffffffffffffffffffffffff1681526020019081526020016000206000828254019250508190555081600660008673ffffffffffffffffffffffffffffffffffffffff1673ffffffffffffffffffffffffffffffffffffffff16815260200190815260200160002060003373ffffffffffffffffffffffffffffffffffffffff1673ffffffffffffffffffffffffffffffffffffffff168152602001908152602001600020600082825403925050819055508273ffffffffffffffffffffffffffffffffffffffff168473ffffffffffffffffffffffffffffffffffffffff167fddf252ad1be2c89b69c2b068fc378daa952ba7f163c4a11628f55a4df523b3ef846040518082815260200191505060405180910390a3600190509392505050565b600360009054906101000a900460ff1681565b60056020528060005260406000206000915090505481565b60008054906101000a900473ffffffffffffffffffffffffffffffffffffffff1681565b60028054600181600116156101000203166002900480601f016020809104026020016040519081016040528092919081815260200182805460018160011615610100020316600290048015610e435780601f10610e1857610100808354040283529160200191610e43565b820191906000526020600020905b815481529060010190602001808311610e2657829003601f168201915b505050505081565b600081600560003373ffffffffffffffffffffffffffffffffffffffff1673ffffffffffffffffffffffffffffffffffffffff1681526020019081526020016000205410158015610f1c5750600560008473ffffffffffffffffffffffffffffffffffffffff1673ffffffffffffffffffffffffffffffffffffffff1681526020019081526020016000205482600560008673ffffffffffffffffffffffffffffffffffffffff1673ffffffffffffffffffffffffffffffffffffffff168152602001908152602001600020540110155b610f2557600080fd5b81600560003373ffffffffffffffffffffffffffffffffffffffff1673ffffffffffffffffffffffffffffffffffffffff1681526020019081526020016000206000828254039250508190555081600560008573ffffffffffffffffffffffffffffffffffffffff1673ffffffffffffffffffffffffffffffffffffffff168152602001908152602001600020600082825401925050819055508273ffffffffffffffffffffffffffffffffffffffff163373ffffffffffffffffffffffffffffffffffffffff167fddf252ad1be2c89b69c2b068fc378daa952ba7f163c4a11628f55a4df523b3ef846040518082815260200191505060405180910390a36001905092915050565b6000818301905092915050565b6006602052816000526040600020602052806000526040600020600091509150505481565b60008054906101000a900473ffffffffffffffffffffffffffffffffffffffff1673ffffffffffffffffffffffffffffffffffffffff163373ffffffffffffffffffffffffffffffffffffffff16146110b857600080fd5b600073ffffffffffffffffffffffffffffffffffffffff168173ffffffffffffffffffffffffffffffffffffffff1614156110f257600080fd5b8073ffffffffffffffffffffffffffffffffffffffff1660008054906101000a900473ffffffffffffffffffffffffffffffffffffffff1673ffffffffffffffffffffffffffffffffffffffff167f8be0079c531659141344cd1fd0a4f28419497f9722a3daafe3b4186f6b6457e060405160405180910390a3806000806101000a81548173ffffffffffffffffffffffffffffffffffffffff021916908373ffffffffffffffffffffffffffffffffffffffff1602179055505056fea2646970667358221220b7647b5e0736d05f69a7f1302547f975fe58e8d283b4f3575b438598dc811c8964736f6c634300060c0033",
  "immutableReferences": {},
  "source": "//SPDX-License-Identifier: MIT\r\npragma solidity ^0.6.3;\r\n\r\nimport \"./Ownable.sol\";\r\n\r\ncontract CatCoin is Ownable {\r\n\r\n\tstring public name = \"Cat Coin\";\r\n\tstring public symbol = \"CAT\";\r\n\tuint8 public decimals = 18;\r\n\r\n\tuint256 public totalSupply;\r\n\r\n\tmapping(address => uint256) public balanceOf;\r\n\tmapping(address => mapping(address => uint256)) public allowance;\r\n\r\n\tconstructor (uint256 _initialSupply) public {\r\n\t\tbalanceOf[msg.sender] = _initialSupply;\r\n\t\ttotalSupply = _initialSupply;\r\n\t}\r\n\r\n\tevent Approval(address indexed _owner, address indexed _spender, uint256 _value);\r\n  \tevent BurnCats(address indexed _burner, uint256 _value);\r\n  \tevent MintCats(address indexed _to, uint256 _amount);\r\n\tevent Transfer(address indexed _from, address indexed _to, uint256 _value);\r\n\r\n\tfunction transfer(address _to,uint256 _value) public payable returns (bool success) {\r\n\t\trequire(balanceOf[msg.sender] >= _value && (balanceOf[_to] + _value) >= balanceOf[_to]);\r\n\t\tbalanceOf[msg.sender] -= _value;\r\n\t\tbalanceOf[_to] += _value;\r\n\t\temit Transfer(msg.sender, _to, _value);\r\n        return true;\r\n\t}\r\n\r\n\tfunction addition(uint8 _a, uint8 _b) public pure returns (uint8) {\r\n\t\treturn _a+_b;\r\n\t}\r\n\r\n\tfunction approve(address _spender, uint256 _value) public returns (bool) {\r\n\t\tallowance[msg.sender][_spender] = _value;\r\n        emit Approval(msg.sender, _spender, _value);\r\n\t\treturn true;\r\n\t}\r\n\r\n\tfunction transferFrom(address _from, address _to, uint256 _value) public payable returns (bool) {\r\n\t\trequire(_value <= balanceOf[_from] && _value <= allowance[_from][msg.sender]);\r\n        balanceOf[_from] -= _value;\r\n        balanceOf[_to] += _value;\r\n        allowance[_from][msg.sender] -= _value;\r\n\t\temit Transfer(_from, _to, _value);\r\n\t\treturn true;\r\n\t}\r\n\r\n\tfunction mintCats(address _owner, uint256 _amount) public onlyOwner returns (bool){\r\n\t\trequire(balanceOf[owner] + _amount <= totalSupply);\r\n\t\tbalanceOf[owner] += _amount;\r\n\t\ttotalSupply += _amount;\r\n\t\temit MintCats(_owner,_amount);\r\n\t\temit Transfer(address(0), _owner, _amount);\r\n\t\treturn true;\r\n\t}\r\n\r\n\tfunction burnCats(uint256 _amount) public returns (bool success){\r\n\t\trequire(_amount <= balanceOf[msg.sender]);\r\n\t\tbalanceOf[msg.sender] -= _amount;\r\n\t\ttotalSupply -= _amount;\r\n\t\temit BurnCats(msg.sender,_amount);\r\n\t\treturn true;\r\n\t}\r\n}\r\n",
  "sourcePath": "D:/webcrypt/testerc/contracts/CatCoin.sol",
  "compiler": {
    "name": "solc",
    "version": "0.6.12+commit.27d51765.Emscripten.clang"
  },
  "schemaVersion": "3.4.1",
  "updatedAt": "2021-09-05T14:35:50.936Z",
  "devdoc": {
    "kind": "dev",
    "methods": {},
    "version": 1
  },
  "userdoc": {
    "kind": "user",
    "methods": {},
    "version": 1
  }
}